{
  "contractName": "Investment",
  "abi": [
    {
      "inputs": [],
      "payable": false,
      "stateMutability": "nonpayable",
      "type": "constructor"
    },
    {
      "constant": true,
      "inputs": [],
      "name": "getBalanceAmount",
      "outputs": [
        {
          "internalType": "int256",
          "name": "",
          "type": "int256"
        }
      ],
      "payable": false,
      "stateMutability": "view",
      "type": "function"
    },
    {
      "constant": true,
      "inputs": [],
      "name": "getDepositAmount",
      "outputs": [
        {
          "internalType": "int256",
          "name": "",
          "type": "int256"
        }
      ],
      "payable": false,
      "stateMutability": "view",
      "type": "function"
    },
    {
      "constant": false,
      "inputs": [
        {
          "internalType": "int256",
          "name": "amount",
          "type": "int256"
        }
      ],
      "name": "addDepositAmount",
      "outputs": [],
      "payable": false,
      "stateMutability": "nonpayable",
      "type": "function"
    },
    {
      "constant": false,
      "inputs": [],
      "name": "withdrawBalance",
      "outputs": [],
      "payable": false,
      "stateMutability": "nonpayable",
      "type": "function"
    }
  ],
  "bytecode": "0x608060405234801561001057600080fd5b50600080819055506000600181905550600c600281905550600380819055506101458061003e6000396000f3fe608060405234801561001057600080fd5b506004361061004c5760003560e01c806349c53b921461005157806358d3e10f1461007f5780635fd8c7101461009d5780637d96f693146100a7575b600080fd5b61007d6004803603602081101561006757600080fd5b81019080803590602001909291905050506100c5565b005b6100876100ec565b6040518082815260200191505060405180910390f35b6100a56100f5565b005b6100af610106565b6040518082815260200191505060405180910390f35b8060015401600181905550600254600154126100e957600354600154016000819055505b50565b60008054905090565b600080819055506000600181905550565b600060015490509056fea265627a7a72315820c7383c8c362320d759e115addb744a4f37e3f9e1a014a0c35bb50e965fd60bc564736f6c63430005100032",
  "source": "pragma solidity 0.5.16;\r\n\r\ncontract Investment { \r\n\r\n    // amount returned to user\r\nint256 balanceAmount;\r\n\r\n// amount deposited by user\r\nint256 depositAmount;\r\n\r\n// minimum amount to be deposited by user\r\nint256 thresholdAmount;\r\n\r\n// amount to be returned in addition to depositAmount to user\r\nint256 returnOnInvestment;\r\nconstructor() public {\r\n    balanceAmount = 0;\r\n    depositAmount = 0;\r\n    thresholdAmount = 12;\r\n    returnOnInvestment = 3;\r\n}\r\nfunction getBalanceAmount() public view returns (int256) {\r\n return balanceAmount;\r\n}\r\nfunction getDepositAmount() public view returns (int256) {\r\n return depositAmount;\r\n}\r\nfunction addDepositAmount(int256 amount) public {\r\n depositAmount = depositAmount + amount;\r\n\r\n if (depositAmount >= thresholdAmount) {\r\n     balanceAmount = depositAmount + returnOnInvestment;\r\n }\r\n}\r\nfunction withdrawBalance() public {\r\n balanceAmount = 0;\r\n depositAmount = 0;\r\n}\r\n\r\n}",
  "sourcePath": "C:\\Users\\Gabriel\\OneDrive\\Desktop\\projects\\BlockChain\\blockchain_app\\contracts\\Investment.sol",
  "compiler": {
    "name": "solc",
    "version": "0.5.16+commit.9c3226ce.Emscripten.clang"
  },
  "schemaVersion": "3.4.4",
  "updatedAt": "2022-01-14T11:27:41.186Z",
  "networkType": "ethereum",
  "devdoc": {
    "methods": {}
  },
  "userdoc": {
    "methods": {}
  }
}